{
  "contractName": "Rental",
  "abi": [
    {
      "constant": true,
      "inputs": [
        {
          "name": "",
          "type": "uint256"
        }
      ],
      "name": "rentals",
      "outputs": [
        {
          "name": "name",
          "type": "string"
        },
        {
          "name": "isAvailable",
          "type": "bool"
        },
        {
          "name": "rentee",
          "type": "address"
        },
        {
          "name": "owner",
          "type": "address"
        },
        {
          "name": "date",
          "type": "string"
        },
        {
          "name": "faceId",
          "type": "string"
        },
        {
          "name": "itemUrl",
          "type": "string"
        },
        {
          "name": "priceInWei",
          "type": "uint256"
        },
        {
          "name": "itemId",
          "type": "uint256"
        }
      ],
      "payable": false,
      "stateMutability": "view",
      "type": "function"
    },
    {
      "constant": true,
      "inputs": [],
      "name": "getItemCount",
      "outputs": [
        {
          "name": "",
          "type": "uint256"
        }
      ],
      "payable": false,
      "stateMutability": "view",
      "type": "function"
    },
    {
      "constant": false,
      "inputs": [
        {
          "name": "name",
          "type": "string"
        },
        {
          "name": "isAvailable",
          "type": "bool"
        },
        {
          "name": "rentee",
          "type": "address"
        },
        {
          "name": "owner",
          "type": "address"
        },
        {
          "name": "date",
          "type": "string"
        },
        {
          "name": "faceId",
          "type": "string"
        },
        {
          "name": "itemUrl",
          "type": "string"
        },
        {
          "name": "priceInWei",
          "type": "uint256"
        }
      ],
      "name": "addNewItem",
      "outputs": [
        {
          "name": "",
          "type": "uint256"
        }
      ],
      "payable": false,
      "stateMutability": "nonpayable",
      "type": "function"
    },
    {
      "constant": true,
      "inputs": [
        {
          "name": "_item",
          "type": "uint256"
        }
      ],
      "name": "getItemAvailability",
      "outputs": [
        {
          "name": "",
          "type": "bool"
        }
      ],
      "payable": false,
      "stateMutability": "view",
      "type": "function"
    },
    {
      "constant": true,
      "inputs": [
        {
          "name": "_item",
          "type": "uint256"
        }
      ],
      "name": "getPriceOfItem",
      "outputs": [
        {
          "name": "",
          "type": "uint256"
        }
      ],
      "payable": false,
      "stateMutability": "view",
      "type": "function"
    },
    {
      "constant": true,
      "inputs": [
        {
          "name": "_item",
          "type": "uint256"
        }
      ],
      "name": "getCurrentOccupant",
      "outputs": [
        {
          "name": "",
          "type": "address"
        }
      ],
      "payable": false,
      "stateMutability": "view",
      "type": "function"
    },
    {
      "constant": false,
      "inputs": [
        {
          "name": "_item",
          "type": "uint8"
        }
      ],
      "name": "rentItem",
      "outputs": [
        {
          "name": "",
          "type": "uint256"
        }
      ],
      "payable": true,
      "stateMutability": "payable",
      "type": "function"
    },
    {
      "constant": false,
      "inputs": [
        {
          "name": "_item",
          "type": "uint256"
        }
      ],
      "name": "returnItem",
      "outputs": [
        {
          "name": "",
          "type": "bool"
        }
      ],
      "payable": false,
      "stateMutability": "nonpayable",
      "type": "function"
    }
  ],
  "bytecode": "0x60806040526000600260006101000a81548173ffffffffffffffffffffffffffffffffffffffff021916908373ffffffffffffffffffffffffffffffffffffffff16021790555034801561005257600080fd5b50611220806100626000396000f3fe608060405260043610610098576000357c0100000000000000000000000000000000000000000000000000000000900480637749cf231161006b5780637749cf231461047c57806384a19c7c146104a7578063a6492228146104fa578063af94a1d11461057557610098565b80630a2f76d71461009d578063222d8e63146100ec578063223ed1dd146101315780633d6010ab14610184575b600080fd5b3480156100a957600080fd5b506100d6600480360360208110156100c057600080fd5b81019080803590602001909291905050506107ec565b6040518082815260200191505060405180910390f35b61011b6004803603602081101561010257600080fd5b81019080803560ff169060200190929190505050610816565b6040518082815260200191505060405180910390f35b34801561013d57600080fd5b5061016a6004803603602081101561015457600080fd5b81019080803590602001909291905050506109ec565b604051808215151515815260200191505060405180910390f35b34801561019057600080fd5b5061046660048036036101008110156101a857600080fd5b81019080803590602001906401000000008111156101c557600080fd5b8201836020820111156101d757600080fd5b803590602001918460018302840111640100000000831117156101f957600080fd5b91908080601f016020809104026020016040519081016040528093929190818152602001838380828437600081840152601f19601f820116905080830192505050505050509192919290803515159060200190929190803573ffffffffffffffffffffffffffffffffffffffff169060200190929190803573ffffffffffffffffffffffffffffffffffffffff169060200190929190803590602001906401000000008111156102a857600080fd5b8201836020820111156102ba57600080fd5b803590602001918460018302840111640100000000831117156102dc57600080fd5b91908080601f016020809104026020016040519081016040528093929190818152602001838380828437600081840152601f19601f8201169050808301925050505050505091929192908035906020019064010000000081111561033f57600080fd5b82018360208201111561035157600080fd5b8035906020019184600183028401116401000000008311171561037357600080fd5b91908080601f016020809104026020016040519081016040528093929190818152602001838380828437600081840152601f19601f820116905080830192505050505050509192919290803590602001906401000000008111156103d657600080fd5b8201836020820111156103e857600080fd5b8035906020019184600183028401116401000000008311171561040a57600080fd5b91908080601f016020809104026020016040519081016040528093929190818152602001838380828437600081840152601f19601f82011690508083019250505050505050919291929080359060200190929190505050610af8565b6040518082815260200191505060405180910390f35b34801561048857600080fd5b50610491610d3c565b6040518082815260200191505060405180910390f35b3480156104b357600080fd5b506104e0600480360360208110156104ca57600080fd5b8101908080359060200190929190505050610d49565b604051808215151515815260200191505060405180910390f35b34801561050657600080fd5b506105336004803603602081101561051d57600080fd5b8101908080359060200190929190505050610d80565b604051808273ffffffffffffffffffffffffffffffffffffffff1673ffffffffffffffffffffffffffffffffffffffff16815260200191505060405180910390f35b34801561058157600080fd5b506105ae6004803603602081101561059857600080fd5b8101908080359060200190929190505050610dca565b60405180806020018a1515151581526020018973ffffffffffffffffffffffffffffffffffffffff1673ffffffffffffffffffffffffffffffffffffffff1681526020018873ffffffffffffffffffffffffffffffffffffffff1673ffffffffffffffffffffffffffffffffffffffff16815260200180602001806020018060200187815260200186815260200185810385528e818151815260200191508051906020019080838360005b83811015610674578082015181840152602081019050610659565b50505050905090810190601f1680156106a15780820380516001836020036101000a031916815260200191505b5085810384528a818151815260200191508051906020019080838360005b838110156106da5780820151818401526020810190506106bf565b50505050905090810190601f1680156107075780820380516001836020036101000a031916815260200191505b50858103835289818151815260200191508051906020019080838360005b83811015610740578082015181840152602081019050610725565b50505050905090810190601f16801561076d5780820380516001836020036101000a031916815260200191505b50858103825288818151815260200191508051906020019080838360005b838110156107a657808201518184015260208101905061078b565b50505050905090810190601f1680156107d35780820380516001836020036101000a031916815260200191505b509d505050505050505050505050505060405180910390f35b60006003828154811015156107fd57fe5b9060005260206000209060080201600601549050919050565b60008060038360ff1681548110151561082b57fe5b90600052602060002090600802019050338160010160016101000a81548173ffffffffffffffffffffffffffffffffffffffff021916908373ffffffffffffffffffffffffffffffffffffffff160217905550600060038460ff1681548110151561089257fe5b906000526020600020906008020160060154348115156108ae57fe5b061480156108bc5750600034115b80156108fc57506001151560038460ff168154811015156108d957fe5b906000526020600020906008020160010160009054906101000a900460ff161515145b156109e257600060038460ff1681548110151561091557fe5b9060005260206000209060080201600601543481151561093157fe5b049050600060038560ff1681548110151561094857fe5b906000526020600020906008020160010160006101000a81548160ff0219169083151502179055506000809054906101000a900473ffffffffffffffffffffffffffffffffffffffff1673ffffffffffffffffffffffffffffffffffffffff166108fc349081150290604051600060405180830381858888f193505050501580156109d7573d6000803e3d6000fd5b5080925050506109e7565b600080fd5b919050565b6000806003838154811015156109fe57fe5b906000526020600020906008020190503373ffffffffffffffffffffffffffffffffffffffff168160020160009054906101000a900473ffffffffffffffffffffffffffffffffffffffff1673ffffffffffffffffffffffffffffffffffffffff16141515610a6c57600080fd5b60018160010160006101000a81548160ff021916908315150217905550600260009054906101000a900473ffffffffffffffffffffffffffffffffffffffff168160010160016101000a81548173ffffffffffffffffffffffffffffffffffffffff021916908373ffffffffffffffffffffffffffffffffffffffff1602179055506001915050919050565b600080610b03610d3c565b9050610b0d6110d4565b610120604051908101604052808c8152602001600115158152602001600260009054906101000a900473ffffffffffffffffffffffffffffffffffffffff1673ffffffffffffffffffffffffffffffffffffffff168152602001600260009054906101000a900473ffffffffffffffffffffffffffffffffffffffff1673ffffffffffffffffffffffffffffffffffffffff168152602001888152602001878152602001868152602001858152602001838152509050600381908060018154018082558091505090600182039060005260206000209060080201600090919290919091506000820151816000019080519060200190610c0d92919061114f565b5060208201518160010160006101000a81548160ff02191690831515021790555060408201518160010160016101000a81548173ffffffffffffffffffffffffffffffffffffffff021916908373ffffffffffffffffffffffffffffffffffffffff16021790555060608201518160020160006101000a81548173ffffffffffffffffffffffffffffffffffffffff021916908373ffffffffffffffffffffffffffffffffffffffff1602179055506080820151816003019080519060200190610cd892919061114f565b5060a0820151816004019080519060200190610cf592919061114f565b5060c0820151816005019080519060200190610d1292919061114f565b5060e082015181600601556101008201518160070155505050819250505098975050505050505050565b6000600380549050905090565b6000600382815481101515610d5a57fe5b906000526020600020906008020160010160009054906101000a900460ff169050919050565b6000600382815481101515610d9157fe5b906000526020600020906008020160010160019054906101000a900473ffffffffffffffffffffffffffffffffffffffff169050919050565b600381815481101515610dd957fe5b9060005260206000209060080201600091509050806000018054600181600116156101000203166002900480601f016020809104026020016040519081016040528092919081815260200182805460018160011615610100020316600290048015610e855780601f10610e5a57610100808354040283529160200191610e85565b820191906000526020600020905b815481529060010190602001808311610e6857829003601f168201915b5050505050908060010160009054906101000a900460ff16908060010160019054906101000a900473ffffffffffffffffffffffffffffffffffffffff16908060020160009054906101000a900473ffffffffffffffffffffffffffffffffffffffff1690806003018054600181600116156101000203166002900480601f016020809104026020016040519081016040528092919081815260200182805460018160011615610100020316600290048015610f825780601f10610f5757610100808354040283529160200191610f82565b820191906000526020600020905b815481529060010190602001808311610f6557829003601f168201915b505050505090806004018054600181600116156101000203166002900480601f0160208091040260200160405190810160405280929190818152602001828054600181600116156101000203166002900480156110205780601f10610ff557610100808354040283529160200191611020565b820191906000526020600020905b81548152906001019060200180831161100357829003601f168201915b505050505090806005018054600181600116156101000203166002900480601f0160208091040260200160405190810160405280929190818152602001828054600181600116156101000203166002900480156110be5780601f10611093576101008083540402835291602001916110be565b820191906000526020600020905b8154815290600101906020018083116110a157829003601f168201915b5050505050908060060154908060070154905089565b6101206040519081016040528060608152602001600015158152602001600073ffffffffffffffffffffffffffffffffffffffff168152602001600073ffffffffffffffffffffffffffffffffffffffff16815260200160608152602001606081526020016060815260200160008152602001600081525090565b828054600181600116156101000203166002900490600052602060002090601f016020900481019282601f1061119057805160ff19168380011785556111be565b828001600101855582156111be579182015b828111156111bd5782518255916020019190600101906111a2565b5b5090506111cb91906111cf565b5090565b6111f191905b808211156111ed5760008160009055506001016111d5565b5090565b9056fea165627a7a723058204b1f37e5b1ccc6ff6474dd72fd3be01eb60f83a18d5dafc16f60a78300e8d2ca0029",
  "source": "pragma solidity ^0.5.2;\n\nimport {RentLib} from \"./RentLib.sol\";\n\ncontract Rental {\n \n\n address payable owner;\n address payable rentee;\n\naddress NullAddress = address(0);\n\n   modifier ownerOnly() {\n    require(msg.sender == owner);\n     _;\n}\n\n\n //Number of Cars available for rent\n    RentLib.Item[] public rentals;\n\n     function getItemCount() public view returns(uint) {\n        return rentals.length;\n    }\n    \n\n    function addNewItem(string memory name, bool isAvailable, address rentee,address owner,string memory date,\n    string memory faceId, string memory itemUrl ,uint256 priceInWei) public returns (uint) {\n        \n        //Current # of items\n        uint count = getItemCount();\n        //Increment Count\n        //Construct Car Object\n        \n        RentLib.Item memory newItem = RentLib.Item(name,true,NullAddress,NullAddress,date, faceId, itemUrl, priceInWei, count);\n        \n        \n        //Add to Array\n        rentals.push(newItem);\n        \n         return count;\n    }\n\n\n    \n// Getting the getters\n\n  function getItemAvailability(uint _item) view public returns(bool) {\n    return rentals[_item].isAvailable;\n}\n\n  function getPriceOfItem(uint _item) view public returns(uint256) {\n    return rentals[_item].priceInWei;\n}\n\nfunction getCurrentOccupant(uint _item) view public returns(address) {\n    return rentals[_item].rentee;\n}\n\n\n\n\n\n// Getting the setters\n\n\n// function setItemAvailability(uint8 _item, bool _newAvailability) ownerOnly public\n// {\n//     rentals[_item].isAvailable = _newAvailability;\n//     if (_newAvailability) {\n//       rentals storage itemToBeRented = rentals[_item]\n//         itemToBeRented.rentee = msg.sender;\n\n//     }\n// }\n \n// function setPriceOfFlat(uint8 _item, uint256 _priceInWei) ownerOnly public\n// {\n//     rentals[_item].priceInWei = _priceInWei; \n\n// }\n\n\nfunction rentItem(uint8 _item) public payable returns(uint256) {\n    RentLib.Item storage itemToBeRented = rentals[_item];\n\n       itemToBeRented.rentee = msg.sender;\n      //  itemToBeRented.rent = false;\n     if (msg.value % rentals[_item].priceInWei == 0 && msg.value > 0 && rentals[_item].isAvailable == true) {\n        uint256 numberOfDaysPaid = msg.value / rentals[_item].priceInWei;\n        rentals[_item].isAvailable = false;\n        owner.transfer(msg.value);\n        return numberOfDaysPaid;\n    } else {\nrevert();\n  return 0;\n    }\n}   \n\nfunction returnItem(uint _item) public  returns (bool) {\n        \n        //Get Specific car\n         RentLib.Item storage itemToReturn = rentals[_item];\n        require(itemToReturn.owner == msg.sender);\n\n        // itemToReturn.rent = true;\n\n\n        // msg.sender == itemToReturn.owner;\n        //Make car available again\n        itemToReturn.isAvailable = true;\n        //Remove previous rentee\n        itemToReturn.rentee = NullAddress;\n        \n        //Return Success\n        return true;\n    }\n}\n\n\n\n\n\n    \n      //Add new Item\n    ",
  "sourcePath": "/home/adarsh/Documents/Code refer/EthIndia-2.0/contracts/Rental.sol",
  "compiler": {
    "name": "solc",
    "version": "0.5.2+commit.1df8f40c.Emscripten.clang"
  },
  "schemaVersion": "3.0.11",
  "updatedAt": "2019-08-03T18:07:20.542Z",
  "devdoc": {
    "methods": {}
  },
  "userdoc": {
    "methods": {}
  }
}